:100000000C9463000C948B000C948B000C948B006C
:100010000C948B000C948B000C948B000C948B0034
:100020000C948B000C948B000C948B000C948B0024
:100030000C948B000C948B000C948B000C948B0014
:100040000C941E0B0C948B000C948E0B0C94680B70
:100050000C948B000C948B000C948B000C948B00F4
:100060000C94C00B0C948B000000000024002700AF
:100070002A0000000000250028002B0000000000DE
:1000800023002600290004040404040404040202DA
:100090000202020203030303030301020408102007
:1000A0004080010204081020010204081020000012
:1000B0000008000201000003040700000000000027
:1000C0000000DF0C5B1111241FBECFEFD8E0DEBFB4
:1000D000CDBF25E0A4E4B3E001C01D92AF33B20769
:1000E000E1F713E0A0E0B1E0E2ECF7E202C0059036
:1000F0000D92A434B107D9F710E0C2E6D0E004C0F5
:100100002197FE010E94CE11C136D107C9F70E9486
:100110009E0D0C94D4130C9400000895089596E05D
:10012000899FD0011124A054BB4F90967C936E936D
:100130005F9791E091969C939197E0912D05F091B6
:100140002E0590912C05992339F0309751F08111AB
:1001500008C08091DC040994309719F05C968C916A
:10016000FACF0895833081F028F4813099F08230FD
:10017000A9F008958730A9F08830C9F08430B1F42F
:10018000809180008F7D03C0809180008F77809365
:100190008000089584B58F7784BD089584B58F7DE0
:1001A000FBCF8091B0008F778093B000089580914D
:1001B000B0008F7DF9CFCF93DF93282F30E0F90186
:1001C000E255FF4F8491F901E656FF4FD491F901B2
:1001D000EA57FF4FC491CC23A1F081110E94B200D5
:1001E000EC2FF0E0EE0FFF1FE458FF4FA591B49104
:1001F000EC91ED2381E090E009F480E0DF91CF9174
:10020000089580E090E0FACF1F93CF93DF93282FDB
:1002100030E0F901E255FF4F8491F901E656FF4FB6
:10022000D491F901EA57FF4FC491CC23A9F0162FBE
:1002300081110E94B200EC2FF0E0EE0FFF1FEE588C
:10024000FF4FA591B4918FB7F894EC91111108C0AC
:10025000D095DE23DC938FBFDF91CF911F9108955E
:10026000DE2BF8CFCF93DF9390E0FC01E656FF4FF3
:1002700024918A579F4FFC0184918823C9F090E014
:10028000880F991FFC01E859FF4FA591B491FC011B
:10029000EE58FF4FC591D49161110DC09FB7F894EE
:1002A0008C91209582238C938881282328839FBF5B
:1002B000DF91CF910895623051F49FB7F8943C914B
:1002C000822F809583238C93E8812E2BEFCF8FB7DD
:1002D000F894EC912E2B2C938FBFEACF3FB7F89474
:1002E0008091FF0390910004A0910104B091020459
:1002F00026B5A89B05C02F3F19F00196A11DB11D81
:100300003FBFBA2FA92F982F8827BC01CD01620FBC
:10031000711D811D911D42E0660F771F881F991F77
:100320004A95D1F708958F929F92AF92BF92CF9244
:10033000DF92EF92FF924B015C010E946E016B0114
:100340007C010E946E016C197D098E099F09683E2F
:10035000734081059105A8F321E0821A9108A10854
:10036000B10888EEC80E83E0D81EE11CF11C811490
:100370009104A104B10429F7FF90EF90DF90CF9092
:10038000BF90AF909F908F9008952FB7F894609191
:10039000FB037091FC038091FD039091FE032FBF3E
:1003A00008950F931F93CF93DF93C82FD62F86E026
:1003B000C89FF0011124E054FB4F11A2878D90A13A
:1003C00081309105F1F058F082309105F1F10397F9
:1003D00009F440C0DF91CF911F910F9108956623DA
:1003E000C9F361E070E08C2F0E948F000E94C5016C
:1003F000609318057093190580931A0590931B0557
:10040000E9CF0E94C50100911805109119052091AE
:100410001A0530911B05AB01BC01401B510B620B4F
:10042000730B80912A0590912B05B0E0A0E0841712
:100430009507A607B70748F462E070E08C2FDF91BC
:10044000CF911F910F910C948F0063E070E0D11158
:10045000C1CFF4CF70E060E0F1CF862F642F0C9411
:100460003201862F642F0C940401862F0C94DB003C
:10047000DB0114964D915C9115976D917C91DC0197
:10048000ED91FC910280F381E02D0994AF92BF922F
:10049000CF92DF92EF92FF920F931F93CF93DF9350
:1004A0006C017B018B01040F151FEB015E01AE187F
:1004B000BF08C017D10759F06991D601ED91FC91A1
:1004C0000190F081E02DC6010995892B79F7C501CE
:1004D000DF91CF911F910F91FF90EF90DF90CF9020
:1004E000BF90AF900895FC01538D448D252F30E0CF
:1004F000842F90E0821B930B541710F0CF96089531
:1005000001970895FC01918D828D981761F0A28D5D
:10051000AE0FBF2FB11D5D968C91928D9F5F9F7323
:10052000928F90E008958FEF9FEF08950F931F93A0
:100530000E94C50160931304709314048093150402
:10054000909316048BE094E00E94820297FF1DC0F6
:100550000E94C50100911304109114042091150408
:1005600030911604601B710B820B930B00910F04EA
:10057000109110042091110430911204601771073A
:1005800082079307F8F28FEF9FEF1F910F91089565
:10059000FC01918D828D981731F0828DE80FF11D4D
:1005A000858D90E008958FEF9FEF0895FC01918D68
:1005B000228D892F90E0805C9F4F821B91098F7361
:1005C000992708958BE094E00E94D60221E0892BC0
:1005D00009F420E0822F089580E090E0892B29F033
:1005E0000E94E20281110C9400000895FC01A48D88
:1005F000A80FB92FB11DA35ABF4F2C91848D90E045
:1006000001968F739927848FA689B7892C93A08927
:10061000B1898C91837080648C93938D848D9813B1
:1006200006C00288F389E02D80818F7D8083089544
:10063000EF92FF920F931F93CF93DF93EC0181E032
:10064000888F9B8D8C8D98131AC0E889F9898081D9
:1006500085FF15C09FB7F894EE89FF896083E8890C
:10066000F98980818370806480839FBF81E090E0FE
:10067000DF91CF911F910F91FF90EF900895F62E8B
:100680000B8D10E00F5F1F4F0F731127E02E8C8D25
:100690008E110CC00FB607FCFACFE889F98980816A
:1006A00085FFF5CFCE010E94F602F1CFEB8DEC0F66
:1006B000FD2FF11DE35AFF4FF0829FB7F8940B8F87
:1006C000EA89FB8980818062CFCFCF93DF93EC01F1
:1006D000888D8823B9F0AA89BB89E889F9898C912A
:1006E00085FD03C0808186FD0DC00FB607FCF7CFE6
:1006F0008C9185FFF2CF808185FFEDCFCE010E94E6
:10070000F602E9CFDF91CF910895089520918703F4
:10071000260F3327331F21323105ECF42091D0030B
:10072000FC0190E080E0243069F082E00895A0911F
:1007300087032191AC0149595C4FA40FB52FB11D1E
:100740002C930196861798F380918703680F609326
:10075000870380E0089581E008951092D00381E03E
:100760008093CF031092AA0361E082E10E9404010A
:1007700061E083E10E940401E9EBF0E080818E7F7B
:10078000808380818D7F808388E48093B80085E4B6
:100790008093BC000895CF93DF9391E0909366031C
:1007A0008823B9F0C091B800D091BA008091BC0004
:1007B0008A7B8093BC0060E082E10E94040160E0DB
:1007C00083E10E9404010E94AD03D093BA00C0935C
:1007D000B800DF91CF9108950895E0910A048091C7
:1007E0000904E81730F4F0E0EA5BFC4F808190E008
:1007F00008958FEF9FEF089590910A048091090466
:100800002FEF3FEF981748F4E92FF0E0EA5BFC4F39
:10081000208130E09F5F90930A04C9010895809180
:10082000090490910A04891B990B0895CF92DF92D5
:10083000EF92FF920F931F93CF93DF937C01CB0135
:100840008A012091D603222389F0EB016B01C40EAB
:10085000D51ECC15DD0569F06991D701ED91FC91AC
:100860000190F081E02DC7010995F3CF642F0E941C
:100870008603C801DF91CF911F910F91FF90EF90F8
:10088000DF90CF900895CF93DF931F92CDB7DEB75F
:1008900069832091D6032223F9F0209107042032A6
:1008A00058F021E030E0FC013383228390E080E0C7
:1008B0000F90DF91CF91089580910804E82FF0E028
:1008C000E952FC4F998190838F5F80930804809355
:1008D000070481E090E0ECCF61E0CE0101960E9438
:1008E0008603F7CFCF92DF92EF92FF920F931F9381
:1008F000CF93DF93FC01C48121E02093D603C09302
:10090000F70310920804109207048385682B88EA85
:1009100094E00E944304D0910704D13208F092C0C1
:100920000E946E016B017C018091D003811165C032
:1009300082E08093D00381E08093CF038FEF809398
:10094000CE031092CD03D093CC03A7EDB3E0ECEA35
:10095000F3E080E0D81385C01092AB038091AB0325
:10096000CC0FC82BC093AB038091AA03813009F050
:100970007CC01092AA030E946E016B017C018091E1
:10098000AB038093BB008091D2039091D303A091DD
:10099000D403B091D503892B8A2B8B2B99F00E941D
:1009A0006E010091D2031091D3032091D4033091B2
:1009B000D5036C197D098E099F09061717072807AB
:1009C0003907E0F18091BC0083FDD9CF85EC80939D
:1009D000BC000E946E016B017C018091D0038230CB
:1009E00009F445C08091CE038F3F61F18091CE0321
:1009F000803241F18091CE0325C08091D203909145
:100A0000D303A091D403B091D503892B8A2B8B2BD0
:100A100009F48ACF0E946E010091D2031091D30392
:100A20002091D4033091D5036C197D098E099F095B
:100A3000061717072807390708F076CF8091D103EA
:100A40000E94CB0310920804109207041092D60360
:100A5000DF91CF911F910F91FF90EF90DF90CF909A
:100A600008959D9191938F5F75CF85EEB0CF809162
:100A7000D2039091D303A091D403B091D503892BD5
:100A80008A2B8B2B09F4A9CF0E946E010091D2030F
:100A90001091D3032091D4033091D5036C197D09B3
:100AA0008E099F09061717072807390708F095CF01
:100AB000C5CF90E080E008950F931F93CF938C01F2
:100AC000C62F0E9472046C2F6460C8010E947204D9
:100AD0006C2F6B7FC8010E94720483EC90E0019739
:100AE000F1F7CF911F910F9108950F931F93CF931B
:100AF000DF938C01D62FC42F607F642B0E945C058E
:100B000080E1D89FB00111246C2BC801DF91CF91F7
:100B10001F910F910C945C05CF93DF93CDB7DEB797
:100B200028970FB6F894DEBF0FBECDBF98E0EEE178
:100B3000F1E0DE01119601900D929A95E1F7909106
:100B40003705981710F48FEF890F90E0880F991FE1
:100B500021E030E02C0F3D1F820F931FFC016081CC
:100B6000606840E08FE295E028960FB6F894DEBF0B
:100B70000FBECDBFDF91CF910C94750540E061E0D1
:100B80008FE295E00E9475058BE39FE10197F1F7F5
:100B900008950F931F93CF93DF938C01EB010E9475
:100BA000BE0580E00E948C05B8018FE295E00E94AE
:100BB000380281E00E948C05BE018FE295E0DF9152
:100BC000CF911F910F910C943802CF93DF93109225
:100BD0000A041092090410920804109207040E945B
:100BE000AD038DE890E090930404809303048EE8B5
:100BF00090E0909306048093050410923405809150
:100C00003905823018F098E09093340580933705C9
:100C100062E370E080E090E00E94930160913A0509
:100C20008FE295E00E94720468EE73E080E090E04D
:100C30000E94930160E38FE295E00E945C05CBE4A3
:100C4000D6E4CE010197F1F760E38FE295E00E94D0
:100C50005C052197F1F760E38FE295E00E945C0567
:100C600083E592E00197F1F760E28FE295E00E9460
:100C70005C0560913405606240E08FE295E00E947F
:100C8000750584E08093350540E06CE08FE295E0E7
:100C90000E9475050E94BE0582E08093360540E003
:100CA00066E08FE295E00E94750540E062E08FE229
:100CB00095E00E9475058BE39FE10197F1F7DF91C5
:100CC000CF91089541E00E94750581E090E008957C
:100CD000FB0101900020E9F73197AF01461B570B4C
:100CE000DC01ED91FC910280F381E02D0994CF931A
:100CF000DF93BC018BE094E00E943802EC0160E6D7
:100D000071E08BE094E00E9468068C0F9D1FDF91DC
:100D1000CF9108950F931F93CF93C82F8B010E94FB
:100D20008C0563E671E08FE295E00E9468068C2FE7
:100D30000E948C05B8018FE295E0CF911F910F9131
:100D40000C943802FB0144815581FC0124813581DA
:100D50002417350778F080819181009759F0FB01C5
:100D6000608171816115710529F00E94C61321E02F
:100D7000892B09F020E0822F08950F931F93CF93C2
:100D8000DF93EC0188819981009759F02A813B819A
:100D90002617370730F081E0DF91CF911F910F9137
:100DA00008958B016F5F7F4F0E94F912009759F0F1
:100DB000998388831B830A832C813D81232B59F7D8
:100DC000FC011082E8CF80E0E7CFEF92FF920F9313
:100DD0001F93CF93DF936115710541F480E0DF919C
:100DE000CF911F910F91FF90EF90089541155105FC
:100DF000B1F07B01EC010C811D81040F151FB801BE
:100E00000E94BD06882351F3288139818C819D8100
:100E1000B701820F931F0E94BF131D830C8381E0D3
:100E2000DECFCF93DF9300D0CDB7DEB769831A82D0
:100E300041E050E0BE016F5F7F4F0E94E5060F90DA
:100E40000F90DF91CF910895CF93DF93EC018881CC
:100E50009981009711F00E947012198218821D82E8
:100E60001C821B821A82DF91CF910895CF93DF936A
:100E7000EC01FB0144815581608171810E94E5068E
:100E8000811103C0CE010E942407CE01DF91CF91D2
:100E90000895EF92FF920F931F93CF93DF93EC018E
:100EA0007B018A01BA010E94BD0681110BC0CE01EF
:100EB0000E942407CE01DF91CF911F910F91FF90E7
:100EC000EF9008951D830C83B701888199810E945A
:100ED000BF13F0CFFB0101900020E9F73197AF017C
:100EE000461B570B0C944907FB01DC0111961C9221
:100EF0001E9213961C921E92129715961C921E9289
:100F000014978617970749F0608171816115710503
:100F100021F0448155810C9449070895FC01118208
:100F200010821382128215821482FB01019000202C
:100F3000E9F73197AF01461B570B0C944907AF9265
:100F4000BF92CF92DF92EF92FF920F931F93CF93B6
:100F5000DF936C015B017A0189012417350720F4C6
:100F60008F2D7901042F182F62E671E0C6010E94CF
:100F70008E07D5011496CD91DC91EC16FD06E0F4B8
:100F80000C171D0708F4E801D501ED91FC911197AC
:100F9000EC0FFD1F108110826D917C916E0D7F1DF5
:100FA000C60161157105A1F00E946A07F5018081F3
:100FB0009181C80FD91F1883C601DF91CF911F916E
:100FC0000F91FF90EF90DF90CF90BF90AF9008957A
:100FD0000E942407EBCFFC0180819181009711F0E2
:100FE0000C947012089585ED8093BC008091D2031B
:100FF0009091D303A091D403B091D5030796A11D7E
:10100000B11D23E0B695A795979587952A95D1F7B9
:101010002091BC0024FD03C01092D003089540919C
:10102000D2035091D3036091D4037091D503452B23
:10103000462B472B69F30097A105B10541F02AE241
:101040002A95F1F700C00197A109B109E1CF80917C
:10105000D1030C94CB03AF92BF92CF92DF92EF9269
:10106000FF920F931F93CF93DF93CDB7DEB76897AF
:101070000FB6F894DEBF0FBECDBF62E671E0CE01C1
:1010800043960E948E070E94960297FD09C08A30FF
:10109000910531F0682FCE0143960E941107F3CFDE
:1010A000CB88DC88C114D10431F00F89188D76010A
:1010B0000115110559F564E771E0CE0101960E9412
:1010C0008E07BE016F5F7F4FCE0143960E94A2063E
:1010D000182FCE0101960E94EB07112309F44CC092
:1010E0002F89388D4EE050E0BE016D5E7F4FCE01FE
:1010F00001960E949F07BE016F5F7F4F90E080E0E6
:101100000E948A06CE0101962EC2750157018FEF0B
:10111000A81AB80AF7018081082E000C990B0E94CA
:101120006311892B91F7015011090C0D1D1DF80158
:101130008081082E000C990B0E946311892B31F0DD
:101140000E151F0518F001501109F1CFA8014F5FCE
:101150005F4F4E195F09588F4F8BCE14DF0420F478
:10116000B701C6010E94B613EB89FC898F89988D5F
:10117000E80FF91F10829FCF63E871E0CE0101965E
:101180000E948E07BE016F5F7F4FCE0143960E9483
:10119000A206182FCE0101960E94EB07112389F0B9
:1011A0002F89388D4EE050E0BE016D5E7F4FCE013D
:1011B00001960E949F07BE016F5F7F4F81E090E024
:1011C0009FCF62E971E0CE0101960E948E07BE01B9
:1011D0006F5F7F4FCE0143960E94A206182FCE016B
:1011E00001960E94EB071123B9F00E94BE05CE01C3
:1011F00043960E94EB0768960FB6F894DEBF0FBEC9
:10120000CDBFDF91CF911F910F91FF90EF90DF90B5
:10121000CF90BF90AF90089560EA71E0CE01019643
:101220000E948E07BE016F5F7F4FCE0143960E94E2
:10123000A206182FCE0101960E94EB07112309F494
:1012400094C083E090E09093F9038093F80368EBF7
:1012500071E0CE0101960E948E0767EC71E0CE012D
:1012600007960E948E07BE016F5F7F4FCE010796E3
:101270000E94C905CE0107960E94EB07CE01019698
:101280000E94EB0760ED77E080E090E00E94930120
:1012900061ED71E0CE0101960E948E076DED71E067
:1012A000CE0107960E948E07BE016F5F7F4FCE0171
:1012B00007960E94C905CE0107960E94EB07CE0152
:1012C00001960E94EB0765EE71E0CE0101960E9447
:1012D0008E076AEB74E0CE0101960E9436070E94E9
:1012E0007706CE0101960E94EB076CED75E080E079
:1012F00090E00E9493016AEF71E0CE0101960E9496
:101300008E0765E072E0CE0107960E948E07BE014F
:101310006F5F7F4FCE0107960E94C905CE010796E9
:101320000E94EB07CE0101960E94EB076CED75E081
:1013300080E090E00E94930162E671E08AEB94E025
:101340000E946A0762E671E084EB94E00E946A07FB
:101350001092F9031092F80365E172E0CE01019654
:101360000E948E0762E272E02DC161E372E0CE015D
:1013700001960E948E07BE016F5F7F4FCE0143969C
:101380000E94A206182FCE0101960E94EB0711239E
:1013900009F473C003E010E01093F9030093F8031D
:1013A00068EB71E0CE0101960E948E0769E472E05D
:1013B000CE010D960E948E076AEB74E0CE010D9669
:1013C0000E943607BC01CE0107960E947407BE0139
:1013D0006F5F7F4FCE0107960E94C905CE01079629
:1013E0000E94EB07CE010D960E94EB07CE010196FD
:1013F0000E94EB0760ED77E080E090E00E949301AF
:101400008091440390914503019690934503809306
:101410004403B8010E94A611892BD1F46EE472E056
:101420008BE094E00E94680660E671E08BE094E057
:101430000E9468066EE572E0CE0101960E948E075A
:10144000BE016F5F7F4F90E080E00E948A066ACF06
:101450006EE672E0CE0101960E948E076AEB74E0A0
:10146000CE0101960E9436070E947706CE010196B2
:101470000E94EB076DE772E0DFCF6EE872E0CE010D
:1014800001960E948E07BE016F5F7F4FCE0143968B
:101490000E94A206182FCE0101960E94EB0711238D
:1014A00009F464C02F89388D42E150E0BE016D5EC1
:1014B0007F4FCE010D960E949F0761EA72E0CE0138
:1014C00001960E948E07BE016F5F7F4F90E080E023
:1014D0000E948A06CE0101960E94EB07BE01635F5F
:1014E0007F4FCE0101960E947407BE016F5F7F4F50
:1014F00081E090E00E948A06CE0101960E94EB07EF
:1015000060ED77E080E090E00E94930162E671E098
:101510008AEB94E00E946A0762E671E084EB94E053
:101520000E946A071092F9031092F80365E172E0D5
:10153000CE0101960E948E0762E272E0CE0107960C
:101540000E948E07BE016F5F7F4FCE0107960E94FB
:10155000C905CE0107960E94EB07CE0101960E94B5
:10156000EB07CE010D960E94EB0741CE60EB72E0D7
:10157000CE0101960E948E07BE016F5F7F4FCE01A4
:1015800043960E94A206182FCE0101960E94EB07F7
:10159000112341F162E671E08AEB94E00E946A0750
:1015A00062E671E084EB94E00E946A071092F9030E
:1015B0001092F80365E172E0CE0101960E948E0759
:1015C00062EC72E0CE0107960E948E07BE016F5F4B
:1015D0007F4FCE0107960E94C905CE0107960E9453
:1015E000EB0790CD6CEC72E0CE0101960E948E0765
:1015F000BE016F5F7F4FCE0143960E94A206182F57
:10160000CE0101960E94EB07111134CF6AED72E012
:10161000CE0101960E948E07BE016F5F7F4FCE0103
:1016200043960E94A206182FCE0101960E94EB0756
:10163000112309F4DCCD61EA72E0FECE1F920F9215
:101640000FB60F9211242F933F938F939F93AF93D5
:10165000BF938091FB039091FC03A091FD03B09197
:10166000FE033091FA0323E0230F2D3758F501963E
:10167000A11DB11D2093FA038093FB039093FC03FB
:10168000A093FD03B093FE038091FF0390910004AB
:10169000A0910104B09102040196A11DB11D809397
:1016A000FF0390930004A0930104B0930204BF9140
:1016B000AF919F918F913F912F910F900FBE0F90FF
:1016C0001F90189526E8230F0296A11DB11DD2CFB9
:1016D0001F920F920FB60F9211242F933F934F93A7
:1016E0005F936F937F938F939F93AF93BF93EF938A
:1016F000FF938BE094E00E94F602FF91EF91BF917F
:10170000AF919F918F917F916F915F914F913F9199
:101710002F910F900FBE0F901F9018951F920F9250
:101720000FB60F9211242F938F939F93EF93FF93F4
:10173000E0911B04F0911C048081E0912104F09160
:10174000220482FD1BC09081809124048F5F8F73DF
:1017500020912504821741F0E0912404F0E0E55F38
:10176000FB4F958F80932404FF91EF919F918F9170
:101770002F910F900FBE0F901F9018958081F4CF7E
:101780001F920F920FB60F9211242F933F934F93F6
:101790005F936F937F938F939F93AF93BF93EF93D9
:1017A000FF938091B900887F803609F44AC0F0F534
:1017B000883209F4A7C018F5803109F49BC0B8F449
:1017C000882309F4F9C0883009F494C0FF91EF919F
:1017D000BF91AF919F918F917F916F915F914F9149
:1017E0003F912F910F900FBE0F901F901895883149
:1017F00009F488C0803251F78093CE0314C080343E
:1018000009F49DC040F48033B9F38833F9F680932E
:10181000CE0385ECB0C0803509F485C0883509F465
:1018200096C0883499F60E94F307D0CF883909F41E
:101830008CC038F5883729F050F4883611F080379D
:1018400029F683E08093D0031092A90357C088380B
:1018500009F47BC0803919F0803809F0B7CF809146
:10186000A903803208F071C0E091A90381E08E0FD6
:101870008093A9038091BB00F0E0E757FC4F808381
:101880003DC0803B39F0E0F4803A09F479C0883AF1
:1018900009F09CCF84E08093D003109288031092CB
:1018A0008703E0910304F091040409958091870374
:1018B00081110FC081E0809387031092670309C0F4
:1018C000803C09F4A6CF883C09F4A3CF883B09F0FB
:1018D0007DCFE091880381E08E0F80938803F0E054
:1018E000E959FC4F80818093BB00909188038091DF
:1018F000870329C08091AB038093BB0085EC809364
:10190000BC0064CF9091CD038091CC03981758F51B
:10191000E091CD0381E08E0F8093CD03F0E0E4559C
:10192000FC4F8081E9CFE091CD0381E08E0F809361
:10193000CD038091BB00F0E0E455FC4F8083909193
:10194000CD038091CC039817C8F285E8D8CFE091F9
:10195000CD0381E08E0F8093CD038091BB00F0E03A
:10196000E455FC4F80838091CF0381115CCF81E0EF
:101970008093AA0384EA8093BC001092D00326CF00
:1019800085EC8093BC001092D0038091A903803233
:1019900030F4E091A903F0E0E757FC4F108260912A
:1019A000A90370E0E0910504F091060489E893E052
:1019B00009951092A9030ACF1092CE0334CF10924A
:1019C0000E0410920D0488EE93E0A0E0B0E0809346
:1019D0000F0490931004A0931104B09312042AE210
:1019E00031E030930C0420930B0425EC30E030936D
:1019F00018042093170424EC30E030931A04209349
:101A0000190420EC30E030931C0420931B0421ECDB
:101A100030E030931E0420931D0422EC30E030931C
:101A2000200420931F0426EC30E0309322042093FE
:101A3000210410922404109225041092260410927E
:101A400027041092AB041092AA048093AC049093E4
:101A5000AD04A093AE04B093AF048CE391E09093F7
:101A6000A9048093A804109232051092310588E5EC
:101A700091E09093300580932F0587E280933305A2
:101A800080E18093380582E08093390510923A0511
:101A90001092C2041092C6041092C5041092C7049A
:101AA0008EE491E09093C1048093C004ECEDF4E0E7
:101AB0001082148213821582369685E0E831F80789
:101AC000B9F784E091E0909323058093220580E0AC
:101AD00091E0909325058093240584E0809326056A
:101AE0008093270588E091E090932105809320055D
:101AF0008AE090E0909329058093280584EF91E097
:101B000090932B0580932A0510922E0510922D0597
:101B100010921C0510921D0510921E0510921F05B3
:101B200010922C0562E671E08AEB94E00E948E0729
:101B300062E671E084EB94E00C948E07CF93DF9320
:101B4000CDB7DEB762970FB6F894DEBF0FBECDBF3C
:101B5000789484B5826084BD84B5816084BD85B588
:101B6000826085BD85B5816085BD80916E00816094
:101B700080936E001092810080918100826080933A
:101B8000810080918100816080938100809180003C
:101B90008160809380008091B10084608093B10067
:101BA0008091B00081608093B00080917A00846061
:101BB00080937A0080917A00826080937A0080918D
:101BC0007A00816080937A0080917A0080688093A7
:101BD0007A001092C100E0911B04F0911C0482E095
:101BE0008083E0911704F09118041082E0911904A9
:101BF000F0911A048FEC808310922304E0911F046B
:101C0000F091200486E08083E0911D04F0911E0491
:101C1000808180618083E0911D04F0911E048081A9
:101C200088608083E0911D04F0911E0480818068AB
:101C30008083E0911D04F0911E0480818F7D80835C
:101C400064EF71E080E090E00E94930110920A043A
:101C50001092090410920804109207040E94AD0328
:101C60008DE890E090930404809303048EE890E064
:101C700090930604809305040E94E5050E94E50503
:101C800088E080933A0560E08FE295E00E9472045C
:101C900064E670E080E090E00E94930165E172E00C
:101CA000CE0101960E948E0762E272E0CE01079695
:101CB0000E948E07BE016F5F7F4FCE0107960E9484
:101CC000C905CE0107960E94EB07CE0101960E943E
:101CD000EB076AEE72E08BE094E00E94680660E633
:101CE00071E08BE094E00E946806412C512C320197
:101CF000439442E0A42EB12C51E050932C050E9455
:101D0000C50100911C0510911D0520911E05309103
:101D10001F05AB01BC01401B510B620B730B809183
:101D2000280590912905B0E0A0E084179507A60743
:101D3000B70708F021C110E080912605181760F45C
:101D4000E0912205F0912305E10FF11D62E0808111
:101D50000E9432011F5FF0CF312C80912705381689
:101D600008F061C0E32CF12CE0912405F0912505E9
:101D7000EE0DFF1D61E080810E943201E09124059B
:101D8000F0912505EE0DFF1D60E080810E940401A9
:101D9000D301C201032C04C0880F991FAA1FBB1FC7
:101DA0000A94D2F74C016C01C094D094212C8091FC
:101DB0002605281608F5022D10E0E0912205F09185
:101DC0002305E00FF11F80810E94DB000C5F1F4F95
:101DD000000F111FF801E054FB4F892B41F4808163
:101DE000918188299929918380832394E0CF8081F0
:101DF00091818C219D21F7CFE0912405F09125055B
:101E0000EE0DFF1D61E080810E9404018091240598
:101E100090912505E80EF91E60E0F70180810E948F
:101E2000320133949ACF00EC14E07801F701878DEA
:101E300090A1892B31F4148E8FEF9FEF968F858FB1
:101E400011A296E0E90EF11CECEFEE16E4E0FE06BE
:101E500069F7D12C80912605D81608F053C0C12C03
:101E60008D2C912C880C991CC40188539B4F4C01DC
:101E700020912705C21608F043C0F40160817181EA
:101E80000C2C02C0769567950A94E2F7D29E9001D9
:101E900011242C0D311DE0ECF4E080E0458D568DD1
:101EA0002417350709F405C28F5F36968A30B1F7DB
:101EB00060FF24C0E0ECF4E090E080E0448D41114C
:101EC00018C0E0912005F0912105E20FF31F408139
:101ED00056E0589FF001599FF00D1124E054FB4F3C
:101EE000448F368F258F10A2178E61E00E94D1019A
:101EF00005C0019636968A30910501F7C394B8CF94
:101F0000D394A8CFD12CF80181A18111D82E0A5FDA
:101F10001F4FE016F106B9F70E94C50160931C053A
:101F200070931D0580931E0590931F05DD2021F100
:101F30008091E104882301F12091DF043091E004D5
:101F400021303105C9F46091DC04611118C08BE0C7
:101F500094E00E94D602892B11F00E942B0880E0A9
:101F600090E0892B09F4C8CE0E94E202882309F48C
:101F7000C3CE0E940000C0CE10922C05E8CF809105
:101F8000F8039091F903009709F0F7C0633211F557
:101F900062E671E08AEB94E00E946A0765E172E014
:101FA000CE0101960E948E0762EC72E0CE01079688
:101FB0000E948E07BE016F5F7F4FCE0107960E9481
:101FC000C905CE0107960E94EB07CE0101960E943B
:101FD000EB07BDCF8091BE049091BF046A3209F037
:101FE00087C0069709F453C064EF72E0CE010196F2
:101FF0000E948E07BE016F5F7F4F90E080E00E94DD
:102000008A06CE0101960E94EB076CED75E080E038
:1020100090E00E94930162E671E0CE0101960E9479
:102020008E0765E172E0CE0107960E948E07BE0121
:102030006F5F7F4FCE0107960E94C905CE010796BC
:102040000E94EB07CE0101960E94EB0769E472E063
:10205000CE0107960E948E076AEB74E0CE010796C8
:102060000E943607BC01CE0101960E947407BE0192
:102070006F5F7F4F81E090E00E948A06CE0101965B
:102080000E94EB07CE0107960E94EB0760CF3093CA
:10209000F9032093F80362E671E084EB94E00E9478
:1020A0006A0763E073E0CE0101960E948E0769E43F
:1020B00072E0CE010D960E948E076AEB74E0CE01AD
:1020C0000D960E943607BC01CE0107960E94740748
:1020D000BE016F5F7F4FCE0107960E94C905CE01FA
:1020E00007960E94EB07CE010D960E94EB076DCF7D
:1020F000069708F02CCF8AEB94E00E94110762E665
:1021000071E0CE010D960E948E0710E000E08091F4
:10211000BE049091BF040817190758F441E050E03D
:102120006AE073E0CE010D960E94E5060F5F1F4F37
:10213000EECF69E472E0CE0107960E948E07BE01E1
:10214000635F7F4FCE0107960E943607BC01CE0128
:1021500001960E947407BE016F5F7F4F81E090E09F
:102160000E948A06CE0101960E94EB07CE010796D7
:102170000E94EB07CE010D962ACF019709F0E7CE1A
:10218000633289F462E671E08AEB94E00E946A07A8
:1021900062E671E084EB94E00E946A071092F90312
:1021A0001092F803FBCE8091B8049091B9046A3282
:1021B00009F05BC00697C1F06CE073E0CE010196B8
:1021C0000E948E07BE016F5F7F4F90E080E00E940B
:1021D0008A06CE0101960E94EB076CED75E080E067
:1021E00090E00E9493015DCFB092F903A092F803B2
:1021F0006AE173E0CE0101960E948E0762E273E00D
:10220000CE0107960E948E07BE016F5F7F4FCE0101
:1022100007960E94C905CE0107960E94EB07CE01E2
:1022200001960E94EB0761E373E0CE0101960E94E4
:102230008E076AEB74E0CE0101960E9436078C018E
:1022400041E050E061E871E00E94E506811103C0C1
:10225000C8010E94240764EB74E0C8010E9436079D
:102260000E947706CE0101960FCF069708F06FCE39
:1022700084EB94E00E94110762E671E0CE010D96B6
:102280000E948E0710E000E08091B8049091B9049C
:102290000817190758F441E050E06AE073E0CE01F6
:1022A0000D960E94E5060F5F1F4FEECF6BE373E0C4
:1022B00042CF61701BCE84EB94E00E94EB078AEB67
:1022C00094E00C94EB0791110C946C11803219F08E
:1022D00089508550C8F708959927882708952F9227
:1022E0003F924F925F926F927F928F929F92AF92A6
:1022F000BF92CF92DF92EF92FF920F931F93CF93F3
:10230000DF93CDB7DEB7CA1BDB0B0FB6F894DEBF89
:102310000FBECDBF09942A88398848885F846E84AF
:102320007D848C849B84AA84B984C884DF80EE80F9
:10233000FD800C811B81AA81B981CE0FD11D0FB602
:10234000F894DEBF0FBECDBFED01089597FB072EB9
:1023500016F4009407D077FD09D00E94BA1107FC4B
:1023600005D03EF4909581959F4F089570956195A5
:102370007F4F0895AA1BBB1B51E107C0AA1FBB1FBB
:10238000A617B70710F0A61BB70B881F991F5A9501
:10239000A9F780959095BC01CD010895EE0FFF1F20
:1023A0000590F491E02D09940F931F93CF93DF9341
:1023B0008230910510F482E090E0E0913D05F091CB
:1023C0003E0530E020E0B0E0A0E0309799F4211520
:1023D000310509F44AC0281B390B24303105D8F5E2
:1023E0008A819B816115710589F1FB019383828349
:1023F000FE0111C0408151810281138148175907A4
:10240000E0F04817590799F4109761F012960C9371
:10241000129713961C933296CF01DF91CF911F91A3
:102420000F91089500933D0510933E05F4CF2115BB
:10243000310551F04217530738F0A901DB019A0129
:10244000BD01DF01F801C1CFEF01F9CF90933E0547
:1024500080933D05CDCFFE01E20FF31F8193919351
:102460002250310939832883D7CF20913B05309101
:102470003C05232B41F420911A0130911B0130932C
:102480003C0520933B05209118013091190121153D
:10249000310541F42DB73EB740911C0150911D010B
:1024A000241B350BE0913B05F0913C05E217F30747
:1024B000A0F42E1B3F0B2817390778F0AC014E5FB4
:1024C0005F4F2417350748F04E0F5F1F50933C05B0
:1024D00040933B05819391939FCFF0E0E0E09CCF48
:1024E000CF93DF930097E9F0FC01329713821282B9
:1024F000A0913D05B0913E05ED0130E020E0109740
:10250000A1F420813181820F931F20913B053091EE
:102510003C052817390709F061C0F0933C05E093AA
:102520003B05DF91CF910895EA01CE17DF07E8F56B
:102530004A815B819E0141155105B1F7E901FB8399
:10254000EA8349915991C40FD51FEC17FD0761F437
:10255000808191810296840F951FE9019983888378
:10256000828193819B838A83F0E0E0E012968D91D3
:102570009C9113970097B9F52D913C911197CD013E
:102580000296820F931F20913B0530913C0528173E
:10259000390739F6309751F510923E0510923D05F6
:1025A000B0933C05A0933B05BCCFD383C28340814D
:1025B0005181840F951FC817D90761F44E5F5F4F93
:1025C00088819981480F591F518340838A819B815B
:1025D000938382832115310509F0B0CFF0933E0536
:1025E000E0933D059ECFFD01DC01C0CF1382128236
:1025F000D7CFB0E0A0E0EFEFF2E10C9471118C01C5
:10260000009751F4CB010E94D4118C01C801CDB7C1
:10261000DEB7E0E10C948D11FC01E60FF71F9C0181
:1026200022503109E217F30708F49DC0D901CD917A
:10263000DC911197C617D70798F0C530D10530F354
:10264000CE0104978617970708F3C61BD70B22976E
:10265000C193D1936D937C93CF010E947012D6CF1A
:102660005B01AC1ABD0A4C018C0E9D1EA0913D056C
:10267000B0913E05512C412CF12CE12C109731F5F5
:1026800080913B0590913C058815990509F05CC047
:102690004616570608F058C080911801909119010C
:1026A000009741F48DB79EB740911C0150911D01D8
:1026B000841B950BE817F90708F055C0F0933C050B
:1026C000E0933B05F90171836083A0CF8D919C91CC
:1026D000119712966C90129713967C901397A815E9
:1026E000B90559F56C0142E0C40ED11CCA14DB04D3
:1026F00020F1AC014A195B09DA011296159780F0B6
:102700006282738251834083D9016D937C93E1147B
:10271000F10471F0D7011396FC93EE93129776CFE4
:1027200022968C0F9D1FF90191838083F301EFCFD7
:10273000F0933E05E0933D0569CF4816590608F42D
:102740002C017D01D3019ACFCB010E94D4117C01D1
:10275000009749F0AE01B8010E94B613C8010E946B
:102760007012870153CF10E000E050CFFB01DC0175
:1027700002C001900D9241505040D8F70895FB01DE
:10278000DC0101900D920020E1F70895FB01DC01CE
:102790004150504030F08D910190801919F4002083
:1027A000B9F7881B990B089510E0C2E6D0E004C089
:1027B000FE010E94CE112196C336D107C9F7F894C5
:0227C000FFCF49
:1027C2000607080902030405313233413435364223
:1027D200373839432A30234400003F058000000087
:1027E2004000140054000000000018034602730267
:1027F2006503D6028202C8020000000043041604E8
:102802005905EC030F04FC03ED03000000002D0248
:1028120031023502000000006206460259058503B6
:102822000D0A0020202020202020202020202020EF
:1028320020202000434D447C4C43447C4C494E456F
:10284200317C00434D447C4C43447C4C494E4532E0
:102852007C00434D447C4C43447C434C45415200F4
:10286200434D447C46494E4745527C535441525451
:102872005F454E524F4C4C00436F6C6F7175652033
:102882006F206465646F00316F2041636573736FFD
:102892000043616461737472616461210044696719
:1028A2006974616C004556547C46494E4745527CDA
:1028B200454E524F4C4C45447C0042656D20766932
:1028C2006E646F210041636573736F204C696265AA
:1028D2007261646F00446967697465206F204944BE
:1028E2003A0053697374656D612050726F6E746F34
:1028F20000434D447C46494E4745527C5354415215
:10290200545F5645524946590049443A20004556BB
:10291200547C46494E4745527C4641494C004E61E3
:102922006F207265636F6E68656369646F004556F8
:10293200547C46494E4745527C4F4B7C004163656F
:1029420073736F204C6962657261646F2100434D3D
:10295200447C4143434553537C44454E4945447C62
:102962000041636573736F204E656761646F210078
:10297200434D447C46494E4745527C43414E434574
:102982004C0043616E63656C61646F00434D447C2F
:1029920042555A5A45527C4F4B00434D447C425556
:1029A2005A5A45527C4641494C004556547C524540
:1029B2004144590049443A20362064696769746F7A
:1029C20073210053656E68613A002A0053656E6890
:1029D200613A20362064696721004167756172643B
:1029E200650056657269666963616E646F2E2E2E8C
:1029F200004556547C415554487C0053656E6861CD
:042A02003A20000076
:00000001FF
